{
  "_format": "hh-sol-artifact-1",
  "contractName": "EmitWinner",
  "sourceName": "contracts/EmitWinner.sol",
  "abi": [
    {
      "anonymous": false,
      "inputs": [
        {
          "indexed": false,
          "internalType": "string",
          "name": "",
          "type": "string"
        }
      ],
      "name": "Winner",
      "type": "event"
    },
    {
      "inputs": [],
      "name": "emitWinner",
      "outputs": [],
      "stateMutability": "nonpayable",
      "type": "function"
    }
  ],
  "bytecode": "0x608060405234801561001057600080fd5b506102c3806100206000396000f3fe608060405234801561001057600080fd5b506004361061002b5760003560e01c8063b524376114610030575b600080fd5b61003861003a565b005b600073cf469d3beb3fc24cee979eff83be33ed50988502905060006040516024016040516020818303038152906040527f732b7a8d000000000000000000000000000000000000000000000000000000007bffffffffffffffffffffffffffffffffffffffffffffffffffffffff19166020820180517bffffffffffffffffffffffffffffffffffffffffffffffffffffffff8381831617835250505050905060008273ffffffffffffffffffffffffffffffffffffffff168260405161010191906101f9565b6000604051808303816000865af19150503d806000811461013e576040519150601f19603f3d011682016040523d82523d6000602084013e610143565b606091505b505090508015610183577f1e1f22c88be4eb57512afdedf796b878457b4d104150bb48d3614b166a0415b860405161017a9061026d565b60405180910390a15b505050565b600081519050919050565b600081905092915050565b60005b838110156101bc5780820151818401526020810190506101a1565b60008484015250505050565b60006101d382610188565b6101dd8185610193565b93506101ed81856020860161019e565b80840191505092915050565b600061020582846101c8565b915081905092915050565b600082825260208201905092915050565b7f796f752077696e21000000000000000000000000000000000000000000000000600082015250565b6000610257600883610210565b915061026282610221565b602082019050919050565b600060208201905081810360008301526102868161024a565b905091905056fea26469706673582212201f7257d450dc1f4c2a3ea8c449dc90510e22e5c50f6ada286f7f2879c86c8caf64736f6c63430008130033",
  "linkReferences": {},
  "deployedLinkReferences": {}
}